:100000000C942E000C9443000C9443000C941201A9
:100010000C9443000C9443000C9443000C94430054
:100020000C9443000C9443000C9443000C94430044
:100030000C9443000C9443000C9443000C94430034
:100040000C9443000C9443000C9443000C94430024
:100050000C9443000C9443000C94430011241FBEE5
:10006000CFEFD4E0DEBFCDBF11E0A0E0B1E0ECE91E
:10007000F2E002C005900D92AC39B107D9F70E94A9
:10008000AF000C944C010C9400009FEF95B987E6EB
:1000900084B98EEF81BB82EC80BB12B891B998B95C
:1000A00017B89BB91AB89EB980E88DB98BEF84BB9D
:1000B00084E083BB089580E38093E50080E680932D
:1000C000E6008FE18093E70080EC8093E4000895E0
:1000D000CF92DF92EF92FF920F93CF93DF9390E056
:1000E00070E0A8E4B1E0660F771F660F771F6D011F
:1000F000C60ED71EE0E0F1E0880F991F880F991F08
:100100007F01E80EF91EE6013881E7015881352BA1
:100110003093EC00E6013981E7015981352B2071DC
:10012000322B3093F100A60FB71FE80FF91F12967C
:100130008C919281892B4071842B8093F600F6017B
:1001400083819B81892B0071802B8093FB00DF9141
:10015000CF910F91FF90EF90DF90CF900895EF92A5
:10016000FF920F93CF93DF930E94450080E380932B
:10017000E50080E68093E6008FE18093E70080EC65
:100180008093E40080E160E140E020E000E00E9434
:10019000680088E08093B60080E180936C00EF9A5D
:1001A000789480E395E729E130E0F9013197F1F7A0
:1001B0000197D9F78091E4008F778093E4008091D4
:1001C000E50080688093E50080E18093E6008091FF
:1001D000E40080688093E400C0E0D0E0F9E1EF2E15
:1001E000F12CC0FD02C000E001C00FEFC1FD02C054
:1001F00020E001C02FEFC2FD02C040E001C04FEF80
:100200008C2F6C2F0E94680080E197E2F7013197F4
:10021000F1F70197D9F72196C231D10514F3C0E067
:10022000D0E0DFCF1F920F920FB60F9211240F93E1
:100230002F933F934F935F936F937F938F939F93EE
:10024000AF93BF93EF93FF938CE49DE10197F1F798
:100250001C9910C080E160E140E020E000E00E94D5
:1002600068008CE49DE129E130E0F9013197F1F774
:100270000197D9F7FF91EF91BF91AF919F918F9126
:100280007F916F915F914F913F912F910F910F90BF
:0C0290000FBE0F901F901895F894FFCF40
:10029C000301030102000200030201010302020137
:1002AC000203020001030201010303010300020027
:1002BC00030303010303020103030300000303010F
:1002CC00010101010202030101030101010301000B
:1002DC0002030300000000000C040C0408000800DA
:1002EC000C0804040C080804080C0800040C08048E
:1002FC00040C0C040C0008000C0C0C040C0C080472
:10030C000C0C0C00000C0C040404040408080C0471
:10031C00040C0404040C040000040400000000009D
:0C032C0000001000001000000000001095
:00000001FF
